:1000000045C0000060C000005EC000005CC0000091
:100010005AC0000058C0000056C0000054C0000084
:1000200052C0000050C000004EC000004CC0000094
:100030004AC000008CC0000046C0000044C0000060
:1000400042C0000040C000003EC00000ADC1000042
:100050003AC0000038C0000036C0000034C00000C4
:1000600032C0000030C000002EC000002CC00000D4
:100070002AC0000028C0000026C0000024C00000E4
:1000800022C0000020C000001EC0000011241FBEBE
:10009000CFEFD0E4DEBFCDBF13E0A0E0B1E0E8EDEC
:1000A000F7E000E00BBF02C007900D92AC3AB10739
:1000B000D9F723E0ACEAB3E001C01D92A23DB2073C
:1000C000E1F781D187C39CCF9C019091CF03992305
:1000D00019F0913039F004C081E08093CF0302C061
:1000E000913079F48091C6038093D003882311F076
:1000F0008FEF82B98091D1039091D00398138093B0
:10010000D003C90108958BE0809381008DE790E0D2
:10011000909389008093880082E080936F00109212
:100120008500109284008091000190910101A091BE
:100130000201B09103018093C9039093CA03A09375
:10014000CB03B093CC038FB780688FBF08951F9205
:100150000F920FB60F9211248F939F93AF93BF937B
:100160008091C9039091CA03A091CB03B091CC03B5
:100170000197A109B1098093C9039093CA03A09381
:10018000CB03B093CC03892B8A2B8B2B99F481E082
:100190008093CD038091000190910101A091020113
:1001A000B09103018093C9039093CA03A093CB033A
:1001B000B093CC03BF91AF919F918F910F900FBEE1
:1001C0000F901F9018956093000170930101809328
:1001D0000201909303016093C9037093CA03809353
:1001E000CB039093CC030895CF92DF92EF92FF92CE
:1001F0006B017C019B01AC016091C2037091C30350
:100200008091C4039091C5036CD1882309F440C048
:1002100020E030E0A901C701B60163D1811104C01B
:1002200085B5887085BD03C085B5836085BD28E52B
:1002300039E344E75FE3C701B60153D188231CF4D7
:100240008FEF87BD1CC020E034E244EF56E4C701C5
:10025000B60159D2181614F417BC11C020E030E0D2
:1002600040E053E4C701B60152D29B01AC0160E00B
:1002700074E284EF9AE439D1A0D1615067BD16BC15
:10028000C092C203D092C303E092C403F092C503AC
:10029000FF90EF90DF90CF900895CF93DF9300977A
:1002A00019F0019759F014C091E080E02091C80343
:1002B000253508F090E0C92FD82F14C091E080E0D8
:1002C0002091C803253508F090E0C92FD82F0AC027
:1002D0008091C803815021E090E0843508F020E04F
:1002E000C22FD92F209721F0C130D10519F14FC06D
:1002F0008091C8038535C8F060E070E0CB0174DF01
:1003000064EF71E080E090E05EDF8091CD038823B0
:10031000E1F31092CD031092C8031092C7036AEF65
:1003200070E080E090E04FDF32C01092C80310927E
:10033000C7032DC0E091C803F0E0EE0FFF1FEE0FE2
:10034000FF1FE85AFD4F60817181828193814CDFEC
:100350008091CD038823E1F31092CD03E091C70390
:10036000F0E0EE0FFF1FEE0FFF1FEC5FFE4F60810E
:1003700071818281938126D126DF8091C8038F5FAE
:100380008093C8038091C7038F5F8093C703CE011A
:10039000DF91CF91089589E484BD8BE085BD60E055
:1003A00070E0CB0121CF08951F920F920FB60F92EC
:1003B00011248F938EB58093C6038F910F900FBE3B
:1003C0000F901F901895CF93DF9300D000D0CDB73A
:1003D000DEB78FEF81B912B89FE094B995B98AB9A9
:1003E0001BB8A7EBB3E0BA83A983ECEAF3E0FC8384
:1003F000EB838C9341E050E060E070E011964D9308
:100400005D936D937C93149715964D935D936D93C7
:100410007C9318972DE431E01A963C932E9319970C
:1004200080834183528363837483458356836783C8
:10043000708784E690E0928781876CE271E080E0CB
:1004400090E0C1DE60DEA7DF60E070E0CB01CCDED3
:100450008091C803811106C06AEF70E080E090E0EF
:10046000B2DE02C08093C7036E0185E0C80ED11CC6
:10047000DE0111967D01F701019111917F01D801F3
:1004800015964D915D916D917C91189711968D9176
:100490009D910D90BC91A02D481759076A077B07C5
:1004A00081F4F80180810184F285E02D082E000C92
:1004B000990B0995D8018C93F80115821682178241
:1004C0001086F80185819681A781B0850196A11DCE
:1004D000B11D85839683A783B087EC14FD0459F67C
:1004E000C7CF9CD008F481E008950CD0D2C0CAD008
:1004F00040F0C1D030F021F45F3F19F0B3C051118A
:10050000FCC0B6C0D7D098F39923C9F35523B1F3F3
:10051000951B550BBB27AA2762177307840738F072
:100520009F5F5F4F220F331F441FAA1FA9F333D0D1
:100530000E2E3AF0E0E830D091505040E695001C85
:10054000CAF729D0FE2F27D0660F771F881FBB1F41
:10055000261737074807AB07B0E809F0BB0B802D1B
:10056000BF01FF2793585F4F2AF09E3F510568F067
:1005700079C0C3C05F3FECF3983EDCF38695779576
:100580006795B795F7959F5FC9F7880F911D969569
:10059000879597F90895E1E0660F771F881FBB1FC5
:1005A000621773078407BA0720F0621B730B840B72
:1005B000BA0BEE1F88F7E095089504D06894B11146
:1005C0009CC008957FD088F09F5790F0B92F99274D
:1005D000B751A0F0D1F0660F771F881F991F1AF04E
:1005E000BA95C9F712C0B13081F086D0B1E0089554
:1005F00083C0672F782F8827B85F39F0B93FCCF3D5
:10060000869577956795B395D9F73EF49095809543
:10061000709561957F4F8F4F9F4F0895990F0008F8
:10062000550FAA0BE0E8FEEF16161706E807F907C4
:10063000C0F012161306E407F50798F0621B730B5F
:10064000840B950B39F40A2661F0232B242B252BE0
:1006500021F408950A2609F4A140A6958FEF811D83
:10066000811D089597F99F6780E870E060E0089524
:100670009FEF80EC089500240A94161617061806BA
:100680000906089500240A94121613061406050696
:100690000895092E0394000C11F4882352F0BB0F27
:1006A00040F4BF2B11F460FF04C06F5F7F4F8F4F8A
:1006B0009F4F089557FD9058440F551F59F05F3FC5
:1006C00071F04795880F97FB991F61F09F3F79F074
:1006D00087950895121613061406551FF2CF4695F6
:1006E000F1DF08C0161617061806991FF1CF869578
:1006F0007105610508940895E894BB27662777275C
:10070000CB0197F908958ADF08F48FEF08950BD095
:10071000C0CFB1DF28F0B6DF18F0952309F0A2CFE3
:10072000A7CF1124EACFC6DFA0F3959FD1F3950F91
:1007300050E0551F629FF001729FBB27F00DB11D65
:10074000639FAA27F00DB11DAA1F649F6627B00DF5
:10075000A11D661F829F2227B00DA11D621F739FDE
:10076000B00DA11D621F839FA00D611D221F749FEC
:100770003327A00D611D231F849F600D211D822F33
:10078000762F6A2F11249F5750408AF0E1F088237A
:100790004AF0EE0FFF1FBB1F661F771F881F915087
:1007A0005040A9F79E3F510570F05CCFA6CF5F3F48
:1007B000ECF3983EDCF3869577956795B795F795BA
:1007C000E7959F5FC1F7FE2B880F911D9695879542
:0807D00097F90895F894FFCF9A
:1007D8000100000000007A430000FA4300007A4359
:1007E80000007A430000FA4300007A4300007A438D
:1007F80000007A4300007A430080094400007A43ED
:1008080000007A4300007A4300007A4300007A44EB
:1008180000007A4300007A4300007A4300007A44DB
:1008280000007A4300007A430000FA4300007A434C
:1008380000007A430000FA4300007A4300007A433C
:1008480000007A4300007A430080094400007A439C
:1008580000007A4300007A4300007A4300007A449B
:1008680000007A4300007A4300007A4300007A448B
:1008780000007A4300007A430000FA4300007A43FC
:1008880000007A430000FA4300007A4300007A43EC
:1008980000007A4400007A4300007A430000FA43DB
:1008A80000007A4300007A430000FA4300007A43CC
:1008B80000007A4300007A4400007A4300007A433B
:1008C8000000FA4300007A4300007A430000FA432C
:1008D80000007A4300007A4300007A44000048434D
:1008E80000004843000048430000484300004843D4
:1008F80000004843000048430000484300004843C4
:100908000000484300004843000048430000C84234
:100918000000C8420000C8420000C8420000C842A7
:100928000000FA4300000000719DAE430000DC4364
:10093800A4F0F643719DAE430000DC43A4F0F643F7
:10094800719DAE430000DC43A4F0F64300D024447C
:100958001FD51244A4F0F64300D00244A4F0F64395
:100968000000C443A4D0A4437BD49243A4D0A4439E
:100978000000C443A4D0A443719DAE430000DC43EF
:10098800A4F0F643719DAE430000DC43A4F0F643A7
:10099800719DAE430000DC43A4F0F64300D024442C
:1009A8001FD51244A4F0F64300D0024400D02444DA
:1009B800A4F0F6430000C443A4F0F6430000C44387
:1009C8007BD49243A4D0A4437BD49243A4D0A44321
:1009D800719DAE430000C4430000DC43A4F0F6431D
:1009E80000D00244A4F0F643A4D0A4437BD492439D
:1009F800A4D0A443719DAE430000C4430000DC436F
:100A0800A4F0F64300D002441FD5124400D0244479
:100A18007BD49243A4D0A443719DAE430000C44349
:100A28000000DC43A4F0F64300D00244A4F0F643EF
:100A3800A4D0A4437BD49243A4D08243719DAE43F7
:100A4800A4D0A4430000C443719DAE4300D0024427
:100A58000000C4431FD5124400D0024400D02444EF
:100A68001FD51244719D2E4400D0244400D0244444
:0C0A7800719D2E441FD5124400D0244470
:00000001FF
